:020000040800F2
:10000000A807002089010008E124000899240008BD
:10001000DD240008A50300081129000800000000E5
:10002000000000000000000000000000F9280008A7
:10003000A90300080000000011280008FD2800089E
:10004000A3010008A3010008A3010008A301000800
:10005000A3010008A3010008A3010008A3010008F0
:10006000A3010008A3010008A3010008A3010008E0
:10007000A3010008A3010008A3010008A3010008D0
:10008000A3010008A3010008A3010008A3010008C0
:10009000A3010008A3010008A3010008B50300089C
:1000A000A301000805290008A3010008A301000816
:1000B000A3010008A3010008A3010008A301000890
:1000C000A3010008A3010008A3010008A301000880
:1000D000A3010008A3010008A3010008A301000870
:1000E000AD030008A3010008A301000800F002F816
:1000F00000F03AF80AA090E8000C82448344AAF188
:100100000107DA4501D100F02FF8AFF2090EBAE885
:100110000F0013F0010F18BFFB1A43F0010318473B
:100120004830000068300000103A24BF78C878C119
:10013000FAD8520724BF30C830C144BF04680C60ED
:10014000704700000023002400250026103A28BF35
:1001500078C1FBD8520728BF30C148BF0B60704739
:100160001FB51FBD10B510BD00F031F81146FFF7E7
:10017000F7FF02F0CFFB00F04FF803B4FFF7F2FFF8
:1001800003BC00F057F800000948804709480047C1
:10019000FEE7FEE7FEE7FEE7FEE7FEE7FEE7FEE737
:1001A000FEE7FEE704480549054A064B7047000094
:1001B00001290008ED000008A8010020A807002080
:1001C000A8030020A80300207047704770477546B9
:1001D00000F02CF8AE4605006946534620F00700B3
:1001E000854618B020B5FFF7DDFFBDE820404FF091
:1001F00000064FF000074FF000084FF0000BAC4630
:10020000ACE8C009ACE8C009ACE8C009ACE8C0097A
:1002100021F007018D46704710B50446AFF300800A
:100220002046BDE81040FFF7A8BF00000048704717
:100230001800002001491820ABBEFEE7260002008E
:1002400070470000B0B582B00446002001902168DC
:100250008A68D2074FD1886840F00100886040F278
:100260001000C2F2000000684DF68361C4F21B3139
:10027000A0FB0101880C01900198A0B10198013800
:100280000190019878B1019801380190019850B11E
:10029000019801380190019828B101980138019026
:1002A00001980028EAD100F067FD21688968C90734
:1002B0001CD1054603E000BF8068C0071AD100F0DA
:1002C0005BFD411B20680329F6D38168C907F3D180
:1002D000A06A40F01000A062E06A40F00100E06215
:1002E000002084F82400012002B0B0BD002002B03C
:1002F000B0BD00BF002002B0B0BD000080B584B02A
:1003000000200190012002900220039040F28C0016
:10031000C2F2000001A900F057F8002818BF00F051
:100320004DF804B080BD000080B584B00120CDE957
:1003300001000220039040F28C00C2F2000001A9EB
:1003400000F042F8002818BF00F038F804B080BD73
:1003500080B584B0022001210190CDE9021040F265
:100360008C00C2F2000001A900F02EF8002818BF8E
:1003700000F024F804B080BD80B584B00320019063
:10038000012002900220039040F28C00C2F2000093
:1003900001A900F019F8002818BF00F00FF804B008
:1003A00080BD0000FEE70000704700004FF40040F1
:1003B00000F0BEBB4FF4807000F0BABBEFF31080CA
:1003C00072B600BFFEE7000010B581B000220092B7
:1003D00090F82420012A03D10221084601B010BD63
:1003E0004B680122062B80F8242015D8026803EB05
:1003F0008303A3F1050E1F23D2F834C003FA0EF4D1
:100400000B682CEA040C03FA0EF444EA0C0454635F
:10041000092B17D937E000BF02680C2B20D803EB5B
:100420008303A3F123041F23D2F830C003FA04FE90
:100430000B682CEA0E0C03FA04F444EA0C0414636F
:10044000092B20D8D2F810C003EB43030724896896
:100450009C402CEA0404994021431161002136E0BC
:1004600003EB8303A3F141041F23D2F82CC003FA4A
:1004700004FE0B682CEA0E0C03FA04F444EA0C04A4
:10048000D462092BDED903EB4304D2F80CC0A4F1EB
:100490001E0E0724896804FA0EF42CEA040401FAFB
:1004A0000EF1214323F00104102CD1600ED142F251
:1004B0000841C4F20101A1F10804A2420ED0816AF0
:1004C00041F020018162012101E000BF00210022F2
:1004D00080F82420084601B010BD00BF0A6812024F
:1004E00030D40A68102B42F400020A602CD140F28A
:1004F0001001C2F2000109684DF68362C4F21B329A
:10050000A1FB0212910C01EB8101490000910099BD
:10051000E1B10099013900910099C9B100990139FF
:1005200000910099B1B1009901390091009999B1F8
:10053000009901390091009900294FF00001E8D19C
:10054000C5E700BF0021C2E70021C0E70021BEE7E8
:100550000021BCE70021BAE70021B8E70068C06CC1
:1005600070470000B0B5002800F0A8800446806AFB
:1005700020B121688868C0070BD114E00020E06238
:1005800084F82400204600F09BF821688868C007A2
:1005900009D0886820F00100886000F0EDFB216838
:1005A0008A68D20726D1A06AC0063AD4A06A41F26E
:1005B000021290430230A062E069D4E9013240EABD
:1005C000030C531EB3FA83F35D091346B2F5807F23
:1005D00018BF2B02207D257B01284CEA450030D135
:1005E00035B3A56A45F02005A562E56A45F0010529
:1005F000E56226E0054602E08868C007D3D000F037
:10060000BBFB401B21680328F6D38868C007F3D0E2
:10061000A06A40F01000A062E06A40F00100E062D1
:10062000A06AA06A40F01000A0620120B0BD00BF27
:10063000D4F818C04EF60005CFF6FF7505EB4C3523
:100640002B434D68B2F5807F25F4694543EA0503E5
:100650004B608B684FF2FD75CFF6E17503EA050339
:1006600043EA00038B6001D0012A07D122690023ED
:10067000CFF6F07303EB025201E000BF0022CB6A19
:1006800023F470031A43CA62896840F6FE62CFF60B
:100690001F721140814207D10020E062A16A01224D
:1006A00062F30101A162B0BDA06A40F0100020F029
:1006B0000200A062E06A40F00100E0620120B0BDEB
:1006C00080B586B0014640F60000C4F2010009681A
:1006D00000F5E05291424FF00001CDE9041101D044
:1006E00006B080BD41F21801C4F202010A6842F46A
:1006F00000720A600A6802F400720192019A0A68A4
:1007000042F004020A60096801F0040101910199B4
:100710000F2102910321039102A900F015FA06B0FE
:1007200080BD0000F0B581B000270D46044600975B
:1007300000F022FB21688A68D20543D40646486847
:10074000C00503D4C86A10F4700F45D040F2100001
:10075000C2F200000768022000F0C8FB216844F6DE
:1007600024130A69B7FBF0F0C2F292431A4206D191
:10077000CA6844F62413C0F292031A425ED00A6992
:1007800042F29243C1F249231A4207D1CA6842F2A7
:100790009243C0F249031A4200F0C0800A6949F24C
:1007A0004923C0F224031A424FF0FC0257D1CF680C
:1007B0001F4208BF5422009B02FB00F7BB4253D3E9
:1007C000C3E000BFA06A40F02000A06284F824705B
:1007D000012001B0F0BD00BF0868800700F1B580BE
:1007E000681C00F0A880FDB90868800772D5086809
:1007F000800700F1AA80086880076BD50868800729
:1008000000F1A3800868800764D50868800700F1BC
:100810009C80086880075DD508688007E4D594E06F
:100820000868800700F1918000F0A6FA801B21681B
:10083000A842F5D908688007F2D44BE00A6942F271
:100840009243C1F249231A424FF0290207D1CB68E3
:1008500042F29247C0F249073B4208BF1422009B74
:1008600002FB00F7BB4270D2681C4FD055BB00980A
:10087000B8422FD30098013000900098B84264D25B
:100880000098B84226D30098013000900098B842F2
:100890005BD20098B8421DD30098013000900098B8
:1008A000B84252D20098B84214D300980130009058
:1008B0000098B842DBD348E00098013000900098DF
:1008C000B84233D200F058FA801BA842F4D90098FD
:1008D000B842F1D2A06A40F00400A062002084F87F
:1008E0002400032001B0F0BD009801300090009872
:1008F000B8422AD20098013000900098B84224D221
:100900000098013000900098B8421ED20098013043
:1009100000900098B842E7D317E000BF5422009B34
:1009200002FB00F7BB429FD30FE000BF21680CE041
:100930000868800709D40868800706D4086880071B
:100940005CBF08685FEA8070F2D56FF01200086043
:10095000A06A40F40070A062886800F46020B0F5DE
:10096000602F01D1207B18B1002001B0F0BD00BF85
:10097000A06A20F48070A062A06AC004F4D4A06AC7
:1009800040F00100A062002001B0F0BD10B50446A7
:1009900090F82400012804BF022010BD012084F833
:1009A00024002046FFF74EFC20B1002184F82410DB
:1009B00010BD00BF42F2044C2068A16AC4F2010CD1
:1009C00040F2013291430CF57F7201F58071904243
:1009D000A16233D0A16A21F48011A1624168490566
:1009E00004D5A16A012363F30D31A162A16A00233A
:1009F000C9044FF0000144BFE16A21F00601E16241
:100A00006FF0020184F824300160816801F46021F4
:100A1000B1F5602F06D190420AD1DCF8001011F434
:100A2000702F05D0816841F480118160002010BDD5
:100A3000816841F4A0018160002010BDDCF8001045
:100A400011F4702FC6D0A16A41F48011A162DCF8C4
:100A500000104905C5D4C9E7B0B5044690F8240094
:100A6000012804BF0220B0BD0121206884F82410B1
:100A70008168C90709D0816821F00101816000F017
:100A80007BF921688968C9070ED1214651F8280FE2
:100A900041F2011220EA0202002042F001020A6043
:100AA000002184F82410B0BD054602E08068C0072C
:100AB000EBD000F061F9411B20680329F6D381686F
:100AC000C907F3D0A06A214640F01000A06251F897
:100AD0002C2F0120E1E70000B0B5044600F04CF9EE
:100AE000054640F20800C2F200000078611C18BF01
:100AF000044400BF00F040F9401BA042FAD3B0BD4F
:100B000040F27801B0F5807FC2F2000106D0B0F566
:100B1000004F18BF70470131012000E0002040F273
:100B200000020B78C2F200021070581C0870704767
:100B300040F21441C4F201010A68024214BF086085
:100B40007047FFF7DDBF00002DE9F04F82B041F2A2
:100B50000042C4F201020E680423904208BF03233E
:100B6000002E009300F0F68040F20C4E4FF6FF7C12
:100B7000C4F2010E00220124C1F2100C4FF0000A51
:100B80004FF0000943E000BF012502F00C040F27DD
:100B9000A7402BEA070705FA04F43C4343F8264034
:100BA000D1F804B040F20045C4F201055FEACB334E
:100BB0002B6854BF23EA080343EA08032B606B68E1
:100BC0005FEA8B3454BF23EA080343EA08036B60EF
:100BD0005FEACB24AB6854BF23EA080343EA080367
:100BE0005FEA8B24AB60DEF800304FF0010454BFA5
:100BF00023EA080343EA0803CEF800300E680AF13E
:100C0000010A36FA0AF302F1040200F0A38004FAA2
:100C10000AF816EA080FF1D04B68634512DC122B74
:100C200056D8DFE803F0350B454955555555555510
:100C3000555555555555554D510000BFD1F80C909F
:100C400046E000BF4FF6FF77C1F22107BB420FDC41
:100C50000027C1F21107BB421AD00027C1F21207C8
:100C6000BB4215D00027C1F22107BB4210D02FE0B4
:100C70000027C1F22207BB420AD00027C1F2310788
:100C8000BB4205D00027C1F23207BB4220D100BFD2
:100C90008B684BB1012B14BFC0F81480C0F81080D2
:100CA0004FF0080914E000BF4FF0040910E000BF46
:100CB000CB6803F108090BE04FF0000908E000BF22
:100CC000CB6803F1040903E0CB6803F10C0900BF12
:100CD00013460546BAF1080F24BF203B04352E68A1
:100CE0000F279F40BE4309FA03F333432B60CB79B0
:100CF000DB067FF583AF41F21804C4F202042368D7
:100D00004FEA9A0643F001032360236840F600048B
:100D100003F001030193019B40F20043C4F201037D
:100D2000A3F57E7353F826B0C4F20104A0420FD09D
:100D300040F60044C4F20104A0423FF425AF41F262
:100D40000004C4F20104009DA04208BF02251CE774
:100D500000251AE702B0BDE8F08F0000C26802EA81
:100D60000103914341EA034101617047002A08BF32
:100D7000090401617047000040F2A010C2F20000B7
:100D80000068704740F2080040F2A011C2F2000073
:100D9000C2F2000100780A68104408607047000041
:100DA00080B542F20000C4F20200016841F0100177
:100DB0000160032000F08AF80F2000F005F800F031
:100DC00027F8002080BD000070B540F20806C2F28E
:100DD000000640F210013278C2F200014FF47A733B
:100DE0000968B3FBF2F20446B1FBF2F1084601F0E8
:100DF00029F80F2C4FF0010508D838B94FF0FF3013
:100E000021460022002500F035F87460284670BDA8
:100E100082B041F21800C4F202000168022241F0DF
:100E200001010160016801F001010191019941682E
:100E300041F080514160406800F08050009000987F
:100E40000420C4F20100016862F31A61016002B07B
:100E500070470000002848BF704700F01F010122C2
:100E600002FA01F14EF200124009CEF2000242F8FD
:100E70002010704710B54EF60C5CCEF2000CDCF87A
:100E80000030C3F3022E8EF00704042C28BF042484
:100E9000BEF103034FF0FF3E0EFA04F438BF002307
:100EA000A14399400EFA03F39A43114300F00F0255
:100EB000043A624409010C3200F16043B0F1FF3F93
:100EC000C8BF03F56442117010BD00004EF60C510E
:100ED000CEF200010A684FF6FF031A4060F30A22BF
:100EE00042F0806040F0FD700860704780B50128D6
:100EF00018D0022836D0102832D141F20401C4F2B1
:100F000002010A6851F8040CC00129D5C2F38340DC
:100F10002DA3185CD2033DD440F60012C0F23D026E
:100F2000504343E041F20400C4F20200C16940F2C0
:100F300002320A40B2F5817F04BF4FF4004080BD09
:100F400001F44071B1F5407F1CD0B1F5007F07D1AD
:100F5000006A49F64041800701EAE07080BD00BFA9
:100F6000002080BD00F0B4F941F20401C4F2020196
:100F700009680222C1F3813102EB4101B0FBF1F0BB
:100F800080BD00BF50F8040C4FF22441800301EAF9
:100F9000E07080BD0A6810A3C2F340429A5C41F23F
:100FA0000023C0F27A03B3FBF2F25043096849020E
:100FB00048BF80BD4AF6AB214000CAF6AA21A0FB7B
:100FC0000101480880BD00BF0203040506070809A7
:100FD0000A0B0C0D0E0F1010010200002DE9F0415C
:100FE00082B00446007841F21C06C007C4F2020633
:100FF0004AD0306810F0805808D1306840F08050F6
:101000003060306800F080500190019847F200078E
:10101000C4F200073868C00512D4386840F4807004
:101020003860FFF7A9FE05463868C00508D4FFF709
:10103000A3FE401B6428F7D9032002B0BDE8F0816D
:10104000706810F4407012D0616801F440718842F9
:101050000DD0706840F24042C4F24222012320F4D5
:10106000407113600023C007136071602AD170685B
:10107000616820F440700843B8F1000F706003D13C
:10108000306820F0805030602068810707D556F81E
:10109000181CA26821F44041114346F8181CC006F0
:1010A00004D4002002B0BDE8F08100BF56F8180C4F
:1010B000E16820F48000084346F8180C002002B0D4
:1010C000BDE8F081FFF758FE054641F2883700BFC2
:1010D00070688007CBD4FFF74FFE401BB8424FF03B
:1010E0000300F5D9EBE700002DE9F04381B00028BB
:1010F00000F0858042F20008C4F202080446D8F8E5
:1011000000000D4600F0070088420CD2D8F800001D
:1011100020F007002843C8F80000D8F8000000F0CD
:101120000700A8426BD1206841F204098107C4F28C
:10113000020917D5410705D5D9F8001041F4E0613F
:10114000C9F80010010705D5D9F8001041F4605125
:10115000C9F80010D9F80010A26821F0F00111437D
:10116000C9F80010C00741D1D8F8000000F007000E
:10117000A8420CD9D8F8000020F007002843C8F88E
:101180000000D8F8000000F00700A84237D120681E
:10119000410707D5D9F80010E26821F4E061114356
:1011A000C9F80010000708D5D9F80000216920F41B
:1011B000605040EAC100C9F80000D9F8002002F0F0
:1011C0000C00082841F20020C0F27A0050D143F20E
:1011D0005813C2F38341C0F60003595CD2033BD4D9
:1011E00040F60010C0F23D00484341E0606802282C
:1011F0000AD001282AD159F8041C890308D40120F7
:1012000001B0BDE8F08300BF59F8041C8901F6D590
:10121000D9F8001021F003010843C9F80000FFF7D6
:10122000ABFD064641F28837D9F80000616800F04E
:101230000C00B0EB810F97D0FFF79EFD801BB842EA
:10124000F2D9032001B0BDE8F08300BF59F8041CB7
:101250008907D4D5DCE700BFD9F8002043F23E135C
:10126000C2F34042C0F600039A5C4843B0FBF2F080
:10127000D9F8001043F24012C1F30311C0F6000286
:10128000515C40F2100220FA01F140F20C00C2F26F
:1012900000000068C2F200021160FFF795FD002017
:1012A00001B0BDE8F083000040F2100041F20401FB
:1012B000C2F20000C4F202010068096843F2501251
:1012C000C1F30221C0F60002515CC8407047000023
:1012D00040F2100041F20401C2F20000C4F2020127
:1012E0000068096843F25012C1F3C221C0F600023F
:1012F000515CC840704700002DE9F04182B00028E1
:1013000068D00446007841F20006C007C4F2020625
:1013100025D0706800F00C0004281BD0706800F025
:101320000C00082802D17068C00313D4606800283C
:1013300000F06881B0F5A02F00F07C81B0F5803F0F
:1013400000F07C81306820F480303060306820F418
:10135000802076E13068800301D56068D0B32078C2
:10136000800718D5706810F00C0F07D0706800F077
:101370000C0008286ED17068C0036BD430688007F9
:1013800002D52069012825D13068616920F0F80074
:1013900040EAC1003060207800071FD42078400761
:1013A00032D4E56995B1706800F00C00082840F06F
:1013B0008F80012D0ED07068216A00F480328A423D
:1013C00008D1616A00F47010884203D1002002B095
:1013D000BDE8F081012002B0BDE8F081A0690028DD
:1013E00062D00020C4F242200121C0F88014FFF72F
:1013F000C3FC0546706A800700F18C80FFF7BCFCD7
:10140000401B0228F6D92AE1F06910F0805808D173
:10141000F06940F08050F061F06900F08050009079
:10142000009847F20007C4F200073868C00529D4C5
:10143000386840F480703860FFF79EFC054600BFB6
:101440003868C0051ED4FFF797FC401B6428F7D905
:1014500005E100BF2069002840F20000C4F24220EC
:1014600000F0828001210160FFF786FC054600BF85
:10147000306880073FF588AFFFF77EFC401B0228ED
:10148000F6D9ECE0E068002800F08080052800F044
:101490009780012800F09880306A20F001003062C7
:1014A000306A20F0040092E00020C4F242200021C3
:1014B000C0F88014FFF760FC054600BF706A800723
:1014C0007FF56CAFFFF758FC401B0228F6D9C6E049
:1014D0000027C4F2422700203866FFF74DFC022D9A
:1014E00005460BD13068800140F1BE80FFF744FC17
:1014F000401B02284FF00300F4D968E730688001F0
:101500007FF564AFFFF738FC401B02284FF0030063
:10151000F4D95CE740F21000C2F20000006844F623
:10152000D351C1F26201A0FB0101480A019000BF42
:1015300000BF0198411E002801913FF42FAF00BF6A
:101540000198411E002801913FF428AF00BF019887
:10155000411E002801913FF421AF00BF0198411EB8
:1015600000280191E4D119E700210160FFF704FC94
:10157000054600BF306880077FF50DAFFFF7FCFB25
:10158000401B02284FF00300F4D920E7306A20F016
:1015900001003062306A20F004003062FFF7ECFB9B
:1015A000054641F2883700BF306A800720D5FFF733
:1015B000E3FB401BB8424FF00300F5D907E700BF3B
:1015C000306A40F004003062306A40F0010030625E
:1015D000FFF7D2FB054641F2883700BF306A80072B
:1015E00006D4FFF7C9FB401BB842F7D937E000BF6C
:1015F000B8F1000F7FF4D5AEF06920F08050F061B3
:10160000CFE600BF306820F480303060306820F4CE
:1016100080203060FFF7B0FB054600BF30688003D4
:101620007FF59DAEFFF7A8FB401B64284FF0030039
:10163000F4D9CCE6306840F480203060306840F463
:1016400080303060FFF798FB054600BF30688003AC
:101650003FF585AEFFF790FB401B6428F6D90320C9
:1016600002B0BDE8F08100BF206AB0F5803F05D12F
:101670007168A26821F40031114371607168626A77
:1016800021F4741110430843706001203866FFF79D
:1016900073FB0446306880013FF598AEFFF76CFBA2
:1016A000001B02284FF00300F4D990E670B538B162
:1016B0000446406A30B10020206104F1140007E0C4
:1016C000012070BD6068B0F5827F03D004F11C007A
:1016D000002101600026A66294F8510020B920463E
:1016E00084F8506000F038F8022084F8510094E843
:1016F000071001F48271036802F4044223F04003EE
:101700000360236911440CF40062114403F00202E7
:101710006369114403F00102A369E569114403F40C
:101720000072114405F03802256A114405F0800268
:10173000A56A114305F4005211430160042101EA36
:1017400013414160C16921F40061C16101206665F6
:1017500084F85100304670BD70B586B040F6000484
:10176000C4F20104006804F5205100268842049662
:1017700002D006B070BD00BF41F21800C4F20200F2
:10178000016802AD41F480510160016801F48051AB
:1017900001910199016841F0040101600068294646
:1017A00000F0040001900198A02002900220039014
:1017B000032005902046FFF7C7F94020CDE9020637
:1017C000204629460496FFF7BFF906B070BD000019
:1017D0002DE9F04381B0044640681D461746B0F538
:1017E000827F0E4602D1A068002867D094F850008E
:1017F000012803D1022001B0BDE8F0834FF00109B8
:1018000084F85090FFF7B8FA94F85110012953D199
:101810008046002E4FF0010018BF002F00F0C78057
:101820000420002184F851006165A663A787E7873B
:101830002163A186E186A2682068B2F5004F216489
:10184000616449D00168490651D5E168002955D045
:10185000E18F002900F08480691C1AD08168C907D3
:1018600006D1FFF789FAA0EB0800A84208D3A7E049
:10187000C068A16B21F8020BA163E08F0138E087FB
:10188000E08F00286CD020688168C907E9D0EFE7B5
:1018900020688168C90703D1FFF76EFA08E000BF2E
:1018A000C068A16B21F8020BA163E08F0138E087CB
:1018B000E08F0028ECD153E0022078E0042084F887
:1018C00051002046314632463B46009500F068F90B
:1018D00001B0BDE8F08300BF016821F04001016064
:1018E000016821F48041016001684906ADD40168B6
:1018F00041F040010160E1680029A9D1E18F79B38D
:10190000691C1AD08168C90706D1FFF735FAA0EB28
:101910000800A84209D355E0007BA16B0870A06BBA
:101920000130A063E08F0138E087E08FC0B120680C
:101930008168C907E9D0EFE720688168C90703D14A
:10194000FFF71AFA09E000BF007BA16B0870A06BDB
:101950000130A063E08F0138E087E08F0028EBD1F1
:101960006068B0F5827F11D1A068B0F5004F02D059
:10197000B0F5806F0AD12168B0F5806F0A6822F057
:1019800040020A6002D12046012101E02046802168
:101990002A46434600F03EFF28B1606D40F020002B
:1019A000606520206065606D002818BF012000215F
:1019B00084F8519084F8501001B0BDE8F08300BF66
:1019C0000320F4E70320F2E72DE9F04381B0044659
:1019D00090F85000012803D1022001B0BDE8F08347
:1019E0004FF001091D4616460F4684F85090FFF748
:1019F000C3F994F85110012972D18046002F4FF09D
:101A0000010018BF002E00F0C2800320002184F8DE
:101A1000510061652763A686E686A163A187E187F9
:101A2000A0682164B0F5004F2068616407D10168A7
:101A300021F040010160016841F4804101600168CA
:101A4000490603D4016841F0400101606168731EDA
:101A5000E268B1FA81F1B3FA83F349095B09B2F59F
:101A6000006F41EA03013DD131B137F8021BC1607B
:101A70002763E18E0139E186E18E00296CD0691C73
:101A80001BD000BF8168890706D4FFF775F9A0EB6A
:101A90000800A84208D348E0216B31F8022BC2604D
:101AA0002163E08E0138E086E08E002854D0206863
:101AB00081688907E9D5EFE720688168890703D441
:101AC000FFF75AF908E000BF216B31F8022BC26022
:101AD0002163E08E0138E086E08E0028ECD13BE007
:101AE000022054E039B139780173206B0130206352
:101AF000E08E0138E086E08E70B3681C0BD11BE0ED
:101B0000216B09780173206B01302063E08E01386E
:101B1000E086E08E00B3206881688907F0D4FFF783
:101B20002BF9A0EB0800A842F3D303202FE000BF5D
:101B3000FFF722F9E08E78B1206881688907F7D530
:101B4000216B09780173206B01302063E08E01382E
:101B5000E086E08E0028EFD1204680212A464346C9
:101B600000F058FE28B1606D40F020006065202034
:101B70006065A06838B9002000902068C1680091B5
:101B8000806800900098606D002818BF0120002137
:101B900084F8519084F8501001B0BDE8F083000043
:101BA0002DE9F04381B0044690F85000012803D19C
:101BB000022001B0BDE8F08301201E4615460F4605
:101BC00084F85000FFF7D8F894F8511081460129A5
:101BD0000CD06068B0F5827F40F0A080A06800283B
:101BE0004FF0020008BF042940F09980002F4FF009
:101BF000010018BF002D00F09280002E00F08F80B1
:101C000094F85100002104281CBF052084F85100DD
:101C10006165A563E687A6872763E6862068A686B2
:101C2000216461640168490603D4016841F0400100
:101C300001606168731EE268B1FA81F1B3FA83F35F
:101C4000DDF8208049095B09B2F5006F41EA030124
:101C50006ED131B137F8021BC1602763E08E0138C5
:101C6000E086012518F1010031D101E0FFF784F889
:101C7000E08E18B9E08F002800F0C28020688168EB
:101C800089070CD5E18E51B1012D08D1216B0025BA
:101C900031F8022BC2602163E18E0139E18681684F
:101CA000C907E3D0E18F0029E0D0C068A16B01250E
:101CB00021F8020BA163E08F0138E087D6E700BF6F
:101CC000FFF75AF8A0EB0900404580F0A980E08EAC
:101CD00018B9E08F002800F0938020688168890798
:101CE0000CD5E18E51B1012D08D1216B002531F8C1
:101CF000022BC2602163E18E0139E1868168C90748
:101D0000DED0E18F0029DBD0C068A16B012521F86E
:101D1000020BA163E08F0138E087D1E702200121A7
:101D200084F85110002184F8501001B0BDE8F08310
:101D300039B139780173206B01302063E08E0138AE
:101D4000E086012518F1010032D101E0FFF714F817
:101D5000E08E10B9E08F002852D020688168890792
:101D60000ED5E18E61B1012D0AD1216B00250978D4
:101D70000173216B206801312163E18E0139E18615
:101D80008168C907E2D0E18F0029DFD0C068A16B6C
:101D900001250870A06B0130A063E08F0138E08757
:101DA000D4E700BFFEF7E8FFA0EB0900404539D2B9
:101DB000E08E08B9E08F18B32068816889070ED5D6
:101DC000E18E61B1012D0AD1216B002509780173E3
:101DD000216B206801312163E18E0139E186816840
:101DE000C907DFD0E18F0029DCD0C068A16B0125D5
:101DF0000870A06B0130A063E08F0138E087D1E765
:101E00002046802142464B4600F004FD60B1606DE3
:101E100040F0200060652020606501207FE700BF62
:101E200003207CE703207AE7A06800284FF0000039
:101E30007FF475AF00902168CA68009289680091AC
:101E400000996CE7411E0020B0EB116F1CBF012010
:101E500070474EF21002CEF2000251604EF623514E
:101E6000CEF20001F0230B700721906011607047E3
:101E7000704700007047000010B590F83C20012A20
:101E80004FF0020233D080F83D200268D2F804E01F
:101E9000D2F808C00C682EF07003234340F2FF74A0
:101EA000C4F20004A24253600ADCB2F1804F13D0A6
:101EB00040F20043C4F200039A420DD011E000BF8B
:101EC00042F60043C4F201039A4205D040F60003F3
:101ED000C4F200039A4204D149682CF080031943EC
:101EE00091600121002280F83D1080F83C201046CE
:101EF00010BD0000002804BF0120704710B5044643
:101F000090F83D0028B9002084F83C00204600F0FD
:101F100067F8022084F83D00206840F2FF730268F1
:101F2000C4F2000342F6004C9842C4F2010C15DCE6
:101F3000B0F1804F1AD040F20041C4F20001884253
:101F400014D0984218DCB0F1804F1DD040F200410F
:101F5000C4F20001884217D01AE000BF604505D0E6
:101F600040F60001C4F200018842EAD1A16822F0E3
:101F700070020A439842E6DD604505D040F6000154
:101F8000C4F20001884203D1216922F440720A435D
:101F9000A36922F08001D4F804E0E26819436045A7
:101FA0000160C262C0F828E002D16169CCF830104B
:101FB00001214161002084F8461084F83E1084F825
:101FC0003F1084F8401084F8411084F8421084F8DF
:101FD000431084F8441084F8451084F83D1010BD77
:101FE00080B582B0006842F60041C4F20101884227
:101FF0001CBF02B080BD41F21800C4F202000168AB
:10200000002241F4006101600068002100F40060DA
:10201000019001981920FEF72DFF192002B0BDE8AC
:102020008040FEF717BF000080B590F83C20012AE1
:102030004FF0020200F0BF8080F83D20D0F800C0D1
:102040004FF67772DCF8083023EA0202CCF8082059
:102050000B683F2B1CDD5F2B20DD602B50D0B3F5D0
:10206000005F6DD0702B40F0A080D1E901E3C9681A
:10207000DCF8082043EA0E0322F47F4243EA012100
:102080001143CCF80810DCF8081041F077018AE021
:102090001F2B29DC63B3102B2AD086E0402B63D0A2
:1020A000502B40F08280D1F804E0C968DCF8203081
:1020B000DCF8202022F00102CCF82020DCF81820E7
:1020C00022F0F00242EA011123F00A0242EA0E0273
:1020D000CCF81810CCF82020DCF8081041F057019B
:1020E00021F020015FE000BF202B01D0302B5CD11C
:1020F000DCF8081021F07001194341F0070152E0AB
:10210000D1F804E0C968DCF8203023F01003CCF8E3
:102110002030DCF81830DCF8202023F4704322F063
:10212000A00243EA013142EA0E12CCF81810CCF8B2
:102130002020DCF8081041F0670121F0100132E0A6
:10214000D1E901E3C968DCF8082043EA0E0322F470
:102150007F4243EA01211143CCF80810DCF8081053
:1021600041F480411FE000BFD1F804E0C968DCF809
:102170002030DCF8202022F00102CCF82020DCF80E
:10218000182022F0F00242EA011123F00A0242EA8A
:102190000E02CCF81810CCF82020DCF8081041F022
:1021A000470121F03001CCF808100121002280F80D
:1021B0003D1080F83C20104680BD000070470000B4
:1021C00010B5016804460869800744BFC8685FEA23
:1021D000807039D40869400744BFC8685FEA40701E
:1021E0003ED40869000744BFC8685FEA007045D460
:1021F0000869C00644BFC8685FEAC0604AD408697D
:10220000C0071CBFC8685FEAC07051D108690006EA
:1022100044BFC8685FEA006052D40869400644BF02
:10222000C8685FEA406053D40869800646BFC86842
:102230005FEA806010BD6FF0200220460A61BDE8B1
:102240001040FFF717BE00BF6FF0020008610120C9
:1022500020778869800743D02046FFF7AFFF45E02D
:102260006FF00400086102202077886910F4407F35
:1022700040D02046FFF7A2FF42E000BF6FF0080009
:10228000086104202077C86980073DD02046FFF709
:1022900095FF3FE06FF01000086108202077C869C3
:1022A00010F4407F3AD02046FFF788FF3CE000BFA3
:1022B0006FF001000861204600F03EF82168A5E7B4
:1022C0006FF0800008612046FFF7D2FD2168A4E787
:1022D0006FF040000861204600F030F82168A3E765
:1022E000204600F025F8204600F024F82168002060
:1022F00020776FE7204600F01BF8204600F01AF820
:102300002168002020776CE7204600F011F8204675
:1023100000F010F821680020207769E7204600F0DF
:1023200007F8204600F006F821680020207766E7CD
:1023300070470000704700007047000070470000C1
:10234000002804BF0120704710B5044690F83D00F6
:1023500028B9002084F83C00204600F05FF82420D3
:1023600084F83D002068D4E90212C36823F40053C6
:10237000C360036923F440531A430261D4E9042380
:102380001143C268194341F20C639A431143C1607F
:102390004169A26921F44071114343F60002C4F27D
:1023A00001029042416103D0FEF77EFF02E000BFD0
:1023B000FEF78EFF6268192148439100B0FBF1F0EF
:1023C00048F21F51C5F2EB11A0FB01235A096FF02F
:1023D000630302FB0300322303EB0010A0FB0101A7
:1023E000F02303EA5113206803EB0212C1F34311F7
:1023F00011448160016921F490410161416921F03A
:102400002A014161C16841F40051C16000202021CE
:10241000206484F83D1084F83E1010BD70B586B07D
:1024200040F60004C4F20104006804F5405100269F
:102430008842049602D006B070BD00BF41F2180079
:10244000C4F20200016802AD41F4804101600168FC
:1024500001F4804101910199016841F0040101609A
:102460000068294600F00400019001984FF40070C4
:10247000029002200390032005902046FEF764FBA3
:102480004FF48060CDE90206204629460496FEF707
:102490005BFB06B070BD0000FEE7000080B540F2B7
:1024A0008C0042F2004EC2F20000C4F2010E4FF462
:1024B000807C012300224FF4602103730275C16107
:1024C000C0E900E2C0F808C00361FEF74BF800283D
:1024D00008BF80BDBDE88040FDF770BFFEE700008B
:1024E000FEE70000B0B584B040F60044C4F2010439
:1024F000204601210022FEF739FC002000F0B8FB45
:102500002020ADF80200204602210022FEF72EFC1A
:1025100040F2BC05C2F200050DF10201284602227C
:102520004FF47A73FFF750FA204602210122FEF79A
:102530001DFC2120ADF80400204602210022FEF7F8
:1025400015FC01A9284602224FF47A73FFF73CFAE2
:10255000204602210122FEF709FC2220ADF80600E8
:10256000204602210022FEF701FC0DF1060128465B
:1025700002224FF47A73FFF727FA20460221012244
:10258000FEF7F4FB40F22330ADF8080020460221AC
:102590000022FEF7EBFB02A9284602224FF47A73D1
:1025A000FFF712FA204602210122FEF7DFFB24206A
:1025B000ADF80A00204602210022FEF7D7FB0DF1FC
:1025C0000A01284602224FF47A73FFF7FDF92046EC
:1025D00002210122FEF7CAFB2520ADF80C0020469F
:1025E00002210022FEF7C2FB03A9284602224FF473
:1025F0007A73FFF7E9F9204602210122FEF7B6FBC4
:1026000040F62660ADF80E00204602210022FEF7BB
:10261000ADFB0DF10E01284602224FF47A73FFF74D
:10262000D3F9204602210122FEF7A0FB204601211A
:102630000122FEF79BFB04B0B0BD0000F0B581B0F5
:1026400040F60044C4F2010407462046022100225D
:102650000025FEF78BFB40F2BC06A020C2F200066C
:102660008DF800006946304601226423FFF7ACF97B
:102670003046394620224FF47A73FFF7A5F92046F9
:1026800002210122FEF772FB0120FEF725FA172036
:102690008DF802002046022100228DF80150FEF73D
:1026A00065FB0DF10201304601226423FFF78CF92E
:1026B0000DF10101304601226423FFF789F820461D
:1026C00002210122FEF752FB9DF8010000F01800E4
:1026D000102819D1E1208DF800008DF80300204664
:1026E00002210022FEF742FB40F2BC00C2F20000D1
:1026F0000DF10301012264230125FFF765F920464E
:1027000002210122FEF732FB284601B0F0BD000095
:10271000F0B583B040F60044C4F201040D4606460D
:102720002046012100220027FEF720FB25208DF8FE
:1027300004002046022100228DF80550FEF716FB0A
:1027400040F2BC05C2F2000501A9284602224FF45E
:102750007A73FFF739F9204602210122FEF706FBC2
:1027600030208DF80600204602210022FEF7FEFAF6
:102770000DF10601284601226423FFF725F92846BA
:10278000314605224FF47A73FFF71EF920460221E5
:102790000122FEF7EBFA2046022100228DF8097093
:1027A0008DF80870FEF7E2FA0DF1090128460122C2
:1027B0006423FFF709F902A9284601226423FFF7E1
:1027C00007F8204602210122FEF7D0FA9DF8080002
:1027D000202140F002008DF80A108DF80B002046F1
:1027E00002210022FEF7C2FA0DF10A012846022258
:1027F0004FF47A73FFF7E8F8204602210122FEF732
:10280000B5FA204601210122FEF7B0FA03B0F0BD6F
:10281000704700002DE9F04182B01E4690460D46FB
:102820000446FEF7A9FA301A00EB0807FEF7A4FAEF
:1028300040F21001C2F200010968C1F3CB317943C3
:10284000019121688A682A40AA4227D1064618F1D8
:1028500001001FD0FEF790FA801BB84222D20198E7
:1028600001990028A1F1010101912168896808BF3F
:10287000074601EA0500A842ECD00FE0886828402E
:10288000A8420BD188682840A84207D18868284010
:10289000A84203D188682840A842EFD0002002B0A7
:1028A000BDE8F081D4E900014268B1F5827F22F0F1
:1028B000E00242600AD1A168B1F5004F02D0B1F543
:1028C000806F03D1016821F040010160A16AB1F578
:1028D000005F07D1016821F400510160016841F4F3
:1028E00000510160012084F85100002084F850005C
:1028F000032002B0BDE8F08170470000FEF742BA45
:102900007047000040F21410C2F20000FFF758BCFC
:10291000FEE7000094B0FEF743FA00240120CDE961
:102920000F44CDE90D440A900E904FF4E0104FF49F
:102930008031022513900AA80394CDE90144CDE922
:102940000B14CDE91151FEF7D7FC28B1EFF310803D
:1029500072B600BFFEE700BF0F20CDE904054FF4BB
:102960008060CDE9070404A802210694FEF7BCFBB1
:1029700020B1EFF3108072B6FEE700BF02254FF4DE
:10298000004B68460095CDF808B0FEF727FB28B14C
:10299000EFF3108072B600BFFEE700BF41F21800EF
:1029A000C4F20200016840F6004941F010010160E4
:1029B0000168C4F2010901F010010A910A99016845
:1029C00009F5806841F0200101600168002201F0F2
:1029D00020010A910A9901684FF4005641F0040160
:1029E00001600168002401F004010A910A9901685C
:1029F00041F00801016000684FF4005100F0080048
:102A00000A900A984046FEF7B1F948460321002291
:102A10004FF0030AFEF7AAF90A960AAE01274046CC
:102A20003146CDE90B740D95FEF78EF848463146D8
:102A3000CDE90AA7CDE90C45FEF786F80025C1F2DD
:102A4000110548463146CDF828B0CDE90B54FEF7C4
:102A50007BF84FF48070CDE90A05A9F58060314616
:102A60000C94FEF771F8172000210022FEF702FAFD
:102A70001720FEF7EFF9282000210022FEF7FAF9CF
:102A80002820FEF7E7F9FFF709FD40F2BC0009F541
:102A90001051C2F200004FF482724FF40073082705
:102AA00080E816000A21C0E90344C0E90543C76174
:102AB000C0E90844C0E90A41FEF7F8FD20B1EFF390
:102AC000108072B6FEE700BF40F2141009F5005105
:102AD000C2F200004FF6FF720D94CDE90B44CDE930
:102AE0000444C0E90014C0E90242C0E9044484611E
:102AF000FFF700FA20B1EFF3108072B6FEE700BFD7
:102B00004FF480500A9040F21410C2F200000AA95B
:102B1000FFF78AFA20B1EFF3108072B6FEE700BF2C
:102B200040F21410C2F2000004A9FFF7A5F928B181
:102B3000EFF3108072B600BFFEE700BF40F25C10FA
:102B400009F53051C2F2000000230C274FF4E132A6
:102B500080E80E00C0E90333C0E90573C361FFF7E5
:102B6000EFFB28B1EFF3108072B600BFFEE700BFA5
:102B7000FFF7B8FC40F20007C2F20007781C0A21F8
:102B8000FFF7C6FD40F27804C2F2000404F1140518
:102B90002846FDF7FBFE04F10A0602E00A20FDF7D5
:102BA0009BFF3878012857D1FDF7A8FB2846FDF791
:102BB000EDFE28464FF47A71FDF7B4FD2846FDF787
:102BC000CDFC60802846FDF747FF0A20FDF784FF13
:102BD000FDF7AAFB2846FDF7D9FE28464FF47A7187
:102BE000FDF7A0FD2846FDF7B9FCA0802846FDF7BB
:102BF00033FF0A20FDF770FFFDF7AAFB2846FDF71B
:102C0000C5FE28464FF47A71FDF78CFD2846FDF786
:102C1000A5FCE0802846FDF71FFF0A20FDF75CFFBA
:102C2000FDF7AAFB2846FDF7B1FE28464FF47A715E
:102C3000FDF778FD2846FDF791FC20812846FDF739
:102C40000BFF0A20FDF748FFD4F80200D4F8061065
:102C5000C4F80A00C4F80E103046FFF7EFFC012854
:102C60009CD140464FF40051FEF778F896E70000FB
:102C7000F0B587B0172803D0072815D1272001E029
:102C800041F2371040F60044C4F20104ADF81400DC
:102C9000204602210022FEF769F840F2BC00C2F291
:102CA000000005A93FE200BF40F600444FF4026077
:102CB000C4F20104ADF81400204602210022FEF700
:102CC00055F840F2BC05C2F2000505A928460222CB
:102CD0004FF47A73FEF778FE204602210122FEF7B8
:102CE00045F843F62170ADF8140020460221002279
:102CF000FEF73CF805A9284602224FF47A73FEF746
:102D000063FE204602210122FEF730F840F2223015
:102D1000ADF81400204602210022FEF727F805A98D
:102D2000284602224FF47A73FEF74EFE2046022117
:102D30000122FEF71BF840F22330ADF814002046C4
:102D400002210022FEF712F805A9284602224FF4BC
:102D50007A73FEF739FE204602210122FEF706F8BB
:102D60004FF44970ADF81400204602210022FDF70F
:102D7000FDFF05A9284602224FF47A73FEF724FED0
:102D8000204602210122FDF7F1FF40F22520ADF897
:102D90001400204602210022FDF7E8FF05A928467D
:102DA00002224FF47A73FEF70FFE20460221012221
:102DB000FDF7DCFF40F62660ADF814002046022146
:102DC0000022FDF7D3FF05A9284602224FF47A73AB
:102DD000FEF7FAFD204602210122FDF7C7FF27205A
:102DE000ADF81400204602210022FDF7BFFF05A91F
:102DF000284602224FF47A73FEF7E6FD20460221B0
:102E00000122FDF7B3FF2820ADF81400204602216F
:102E10000022FDF7ABFF05A9284602224FF47A7382
:102E2000FEF7D2FD204602210122FDF79FFF292057
:102E3000ADF81400204602210022FDF797FF05A9F6
:102E4000284602224FF47A73FEF7BEFD2046022187
:102E50000122FDF78BFF2A206FF018064FF0E737AD
:102E60008DF80C002046022100228DF8186005978D
:102E7000FDF77CFF03A9284601226423FEF7A4FD89
:102E800005A9284605224FF47A73FEF79DFD2046DA
:102E900002210122FDF76AFF6FF03D008DF810005E
:102EA0004FF0C23003902B208DF804002046022101
:102EB0000022FDF75BFF01A9284601226423FEF7EB
:102EC00083FD03A9284605224FF47A73FEF77CFDA3
:102ED000204602210122FDF749FF4CF22C30ADF8CB
:102EE0000400204602210022FDF740FF01A92846E8
:102EF00002224FF47A73FEF767FD20460221012279
:102F0000FDF734FF4CF22D40ADF8040020460221BD
:102F10000022FDF72BFF01A9284602224FF47A7305
:102F2000FEF752FD204602210122FDF71FFF4CF261
:102F30002E50ADF80400204602210022FDF716FFB6
:102F400001A9284602224FF47A73FEF73DFD204680
:102F500002210122FDF70AFF4CF22F60ADF80400B8
:102F6000204602210022FDF701FF01A92846022286
:102F70004FF47A73FEF728FD204602210122FDF767
:102F8000F5FE30208DF81A002046022100228DF82F
:102F900008600197FDF7EAFE0DF11A0128460122AB
:102FA0006423FEF711FD01A9284605224FF47A7328
:102FB000FEF70AFD204602210122FDF7D7FE31204F
:102FC000ADF81A00204602210022FDF7CFFE0DF1D8
:102FD0001A01284602224FF47A73FEF7F5FC2046C8
:102FE00002210122FDF7C2FE3220ADF81A00204670
:102FF00002210022FDF7BAFE0DF11A012846022235
:103000004FF47A73FEF7E0FC204602210122FDF71F
:10301000ADFE3320ADF81A00204602210022FDF754
:10302000A5FE0DF11A01284602224FF47A73FEF72D
:10303000CBFC204602210122FDF798FE3420ADF89A
:103040001A00204602210022FDF790FE0DF11A0120
:10305000284602224FF47A73FEF7B6FC204602217E
:103060000122FDF783FE3520ADF81A00204602212B
:103070000022FDF77BFE0DF11A01284602224FF4D3
:103080007A73FEF7A1FC204602210122FDF76EFEB5
:103090003620ADF81A00204602210022FDF766FE18
:1030A0000DF11A01284602224FF47A73FEF78CFCC8
:1030B000204602210122FDF759FE41F23710ADF8FA
:1030C0001A00204602210022FDF750FE0DF11A01E0
:1030D000284602224FF47A73FEF776FC204602213E
:1030E0000122FDF743FE3C20ADF81A0020460221E4
:1030F0000022FDF73BFE0DF11A01284602224FF493
:103100007A73FEF761FC204602210122FDF72EFEB4
:103110003D20ADF81A00204602210022FDF726FED0
:103120000DF11A01284602224FF47A73FEF74CFC87
:10313000204602210122FDF719FE07B0F0BD010271
:103140000000000000000000010203040607080957
:103150000000000001020304020304050607080939
:103160000A0B0C0D0E0F1010883100080000002013
:103170001800000028010008A031000818000020F5
:10318000900700004401000801EEDDCCBBAA00005E
:1031900001000000100000000024F4000000000006
:04000005080000ED02
:00000001FF
